:020000040800F2
:1000000078060020D5020008692100086121000857
:10001000652100080D190008852200080000000075
:100020000000000000000000000000007121000836
:1000300011190008000000006D210008752100085A
:10004000EF020008EF020008EF020008EF020008CC
:10005000EF020008EF020008EF020008EF020008BC
:10006000EF020008EF020008EF020008EF020008AC
:10007000EF020008EF020008EF020008EF0200089C
:10008000EF020008EF020008EF020008EF0200088C
:10009000EF020008EF020008EF020008EF0200087C
:1000A000EF020008EF020008EF020008EF0200086C
:1000B000EF020008EF020008EF020008EF0200085C
:1000C000EF020008EF020008EF020008EF0200084C
:1000D000EF020008EF020008EF020008EF0200083C
:1000E000EF020008EF020008EF020008EF0200082C
:1000F000EF020008EF020008EF020008EF0200081C
:10010000EF020008EF020008EF020008EF0200080B
:10011000EF020008EF020008EF020008EF020008FB
:10012000EF020008EF020008EF020008EF020008EB
:10013000EF020008EF020008EF020008EF020008DB
:10014000EF020008EF020008EF020008EF020008CB
:10015000EF020008EF020008EF020008EF020008BB
:10016000EF020008EF020008EF020008EF020008AB
:10017000EF020008EF020008EF0200080000000094
:10018000EF020008EF02000800F002F800F092F819
:100190000AA090E8000C82448344AAF10107DA45E2
:1001A00001D100F087F8AFF2090EBAE80F0013F0A2
:1001B000010F18BFFB1A43F001031847FC2C000085
:1001C0001C2D0000103A24BF78C878C1FAD8520715
:1001D00024BF30C830C144BF04680C6070470000C1
:1001E0000023002400250026103A28BF78C1FBD840
:1001F000520728BF30C148BF0B6070476E2900F01E
:10020000DD82702900F02184662902F0928565293B
:1002100002F08F85672902F08C85612902F08B85B9
:1002200003681B0A28BF41F08001692900F008819A
:10023000642900F00581752900F002816F2900F022
:10024000AF83782900F0ED83E92900F04983E429A0
:1002500000F04683F52900F04383EF2900F0AC83DA
:10026000F82900F0EC830368DB0928BF41F0800126
:10027000632900F0D187732900F0D687E32900F0C5
:10028000E187F32900F0E687002070471FB502F0F0
:1002900043FD01F035F804000020002102F026FDA6
:1002A000401C60600020002102F00AFDE0601FBDDC
:1002B00010B510BD00F0F6FF1146FFF7E7FF01F0A3
:1002C000E3FF01F0D3F803B4FFF7F2FF03BC01F042
:1002D00019F900000948804709480047FEE7FEE792
:1002E000FEE7FEE7FEE7FEE7FEE7FEE7FEE7FEE7E6
:1002F00004480549054A064B704700002D220008B6
:10030000890100087800002078060020780200208B
:100310007802002053EA020C00F069802DE9F04BCE
:100320004FF00006002B1FBFB3FA83F503FA05F464
:1003300024FA05F65E4012BF1643B2FA82F502FABD
:1003400005F4C5F120051EBF22FA05FC44EA0C04A1
:10035000203556EA044C4FEA144418BF641C4FF091
:1003600000084FF00009904271EB030C39D30029CB
:1003700019BFB1FA81F701FA07F6B0FA80F700FA6F
:1003800007F6C7F120071EBF20FA07FC46EA0C0655
:100390002037B6FBF4FCA7EB0507103F07F01F0B57
:1003A000CBF120062CFA06F60CFA0BFB44BFB34641
:1003B0000026202FA4BF5E464FF0000B5BEA060C20
:1003C00008BF4FF0010B19EB0B0948EB0608ABFB1C
:1003D000027C06FB02CC0BFB03CCC01B71EB0C01B7
:1003E000C1E70B46024641464846BDE8F08B13B5CF
:1003F000084318BF4FF0FF300146AFF30080BDE85F
:100400001C4070477CB51D4616460C00009007D076
:100410004142A14202D32044401E01E04FF0FF3090
:10042000064B7B442A4669460190304600F0DFF9CE
:10043000002C02D0009A002111707CBDEF03000057
:100440002DE9F0410646002410687529314616A5AD
:1004500010D000F01FF9002802DA404213A507E08F
:1004600031688A0701D512A502E0490704D511A514
:10047000012401E000F017F900210A2206F1240707
:1004800009E0B0FBF2FCB0FBF2F302FB1C003030E1
:1004900078541846491C0028F3D123462A46304692
:1004A000BDE8F04100F031B9000000002D0000006F
:1004B0002B000000200000002DE9F05F8946044673
:1004C0004FF0000ADFF874B1FB44C0F820A02046CA
:1004D000E1688847002874D0252806D0D4E9012196
:1004E0009047206A401C2062F1E700265F462046C4
:1004F000E16888472028054607DB312D05D27819A9
:1005000010F8200C08B10643F1E7B00701D526F03A
:100510000406C4F81CA00027C4F818A02A2D09D08E
:10052000284602F0C5FB38B304EB8708303DC8F815
:10053000185019E059F8041B204604EB870291611A
:10054000E1688847012F054618D1E069002820DAC4
:1005500026F020061DE0D8F8180000EB800005EB1F
:1005600040003038C8F818002046E1688847054642
:1005700002F09EFB0028EED1012F0AD02E2D08D1CB
:100580002046E16888477F1C0546022F46F020067A
:10059000C4DBA069002803DA404246F00106A061EE
:1005A000F00701D026F010066C2D0BD0682D09D075
:1005B0004C2D39D06A2D35D0742D35D07A2D33D0CD
:1005C00016E038E0E1682F4620468847B8420546E5
:1005D00009D16C2F26D04FF48060E1680643204695
:1005E0008847054604E06C2F1AD04FF4807006430C
:1005F0000DB3A5F14100192802D8203546F4006654
:100600004A462946204626604E46FFF7F7FD80B150
:1006100001280BD0F61D26F0070000F1080956E767
:100620004020E4E78020D8E70020D6E706F104095F
:100630004DE7284652E7206ABDE8F09F6E2800008B
:1006400070477047704770B5044685690068C106F9
:1006500001D5302600E02026C00707D070BDD4E9C0
:10066000012130469047206A401C20626D1EF6D55D
:1006700070BD70B5044685690078C00707D170BDAC
:10068000D4E9012120209047206A401C20626D1E81
:10069000F6D570BD09684A0501D540B27047C90555
:1006A000FCD500B2704709684A0501D5C0B2704751
:1006B000C905FCD580B2704770B50C460546012AC5
:1006C00005D02878800600D5EA69002302E00123DE
:1006D00005E05B1C934202D2E05C0028F9D1A869D6
:1006E000E618C01AA861286A184428622846FFF74D
:1006F000AAFF04E0D5E9012114F8010B9047B442A8
:10070000F8D32846FFF7B5FF70BD2DE9F0470D4639
:1007100099469246044600F124080168880604D5EB
:10072000E06921F01001216000E00120A84201DD14
:10073000471B00E00027A1697A1902EB0900081A9B
:10074000A0612078C00602D42046FFF77CFF002677
:1007500008E0D4E901211AF806009047206A401CFD
:10076000761C20624E45F4DB2078C0060AD5204670
:10077000FFF769FF06E0D4E9012130209047206AA5
:10078000401C2062381EA7F10107F4DC07E0D4E921
:10079000012118F805009047206A401C2062281E9D
:1007A000A5F10105F3DC2046FFF763FF2078000682
:1007B00002D50220BDE8F0870120FBE7116802683E
:1007C000006A530501D508700AE0D30501D50880F9
:1007D00006E0130603D5C217C1E9000200E0086075
:1007E0000120704701694A1C02610878704700B512
:1007F0008FB0CDE901310021059105497944CDE95A
:10080000031011466846FFF757FE0FB000BD000009
:10081000E5FFFFFFD1E900239A4202D2531C0B608F
:10082000107070472DE9FF5F15468A460446DFF8D1
:10083000AC80F8440027D8E900103E46CDE900100E
:1008400010E03AF816106A4602A800F007FD411CB5
:1008500007D02178890603D5E269391891420DD86D
:100860000744761C2078800602D5E069B84205DD91
:10087000AE42E6DB3AF816000028E2D1A069C01BC0
:10088000A0612046FFF7DFFED8E90010CDE9001097
:10089000002017E03AF818106A4602A800F0DEFCC3
:1008A000B0F1FF3F81460BD000250DF1080B05E0AC
:1008B000D4E901211BF8050090476D1C4D45F7D385
:1008C00008F10100B0428046E4DB206A384420622F
:1008D0002046FFF7CEFEBDE8FF9F00001625000072
:1008E0002DE9F0418046D21D22F007020025D2E911
:1008F0000002F52915A614D0011E72F1000106DAD6
:100900000023D0EB030063EB020211A608E0D8F845
:1009100000108B0701D50FA602E0490701D50EA6EE
:1009200001251146002408F1240704E000F098F89E
:1009300030323A55641C50EA0102F7D12B46324658
:1009400021464046BDE8F041FFF7DFBE0000000051
:100950002D0000002B0000002000000030B400211A
:1009600000F1240408E002F00705D208303542EA1D
:100970004372DB086554491C52EA0305F3D104684D
:10098000002310A2250708D504F020040C4304D04E
:10099000C46901230CA2641EC46130BCFFF7B5BE5C
:1009A00010B5044621461068FFF77DFE024620463A
:1009B000BDE810400023D1E7D21D22F00701D1E9A4
:1009C0000023CBE70000000030000000F0B40D462B
:1009D0000188090502D5214C7C4402E01F4C7C446F
:1009E0000E34002100F1240608E002F00F0712097E
:1009F000E75D42EA03721B097754491C52EA030778
:100A0000F3D102780023120704D5702D06D009B166
:100A1000022311342246F0BCFFF777BE01231034C5
:100A2000F8E770B504460D4621461068FFF73BFE17
:100A3000024629462046BDE870400023C6E7D21D85
:100A400022F00703D3E90023C0E70368126843F0EC
:100A5000200303600823C3610023B7E77823000065
:100A600030B5B0F10A0271F100034FEA900E4EEA80
:100A7000817EB0EB0E0061EB91014FEA101E4EEA51
:100A8000017E10EB0E0041EB11114FEA102E4EEAE1
:100A9000016E10EB0E0041EB11214FEA104E4EEAB1
:100AA000014E10EB0E0041EB1141401841F10001E5
:100AB0004FEAD00040EA41704FEAD1014FEA810489
:100AC00044EA907410EB800544EB01046D1944EB8B
:100AD0000404521BA3414FF0000348BF0A3200D563
:100AE00030BD401C41F1000130BD2DE9FF4F0C46E7
:100AF0001E464FF0FF378BB0D2E90001DDF8608071
:100B00000A908A46C1F30A5505B93D4600210846B8
:100B10004FF00000BAF1000F00F4400005DA00EBDE
:100B200080004FF4400101EA50004FEA9059B9F1BA
:100B3000010F00DDB9460A9850EA4A000ED044F68B
:100B40001050A5F2FF3545432F14B8F1000F1ED009
:100B50007542291E1EDDC9F100021CE0B8F1010F2B
:100B60004FF0000001D0302103E0F24305E02154B2
:100B7000401CB042FBDB30460022002121540B997F
:100B8000C1F80880C1E900200FB0BDE8F08FBD1B9F
:100B90006D1CDEE74A4600DA694206A800F0F4FB65
:100BA00006AB93E8070003AB83E8070050460A99B9
:100BB00001F09EFC8DE80700A0F500501F38009062
:100BC0000398002D0ADD42F21F014A460844002323
:100BD00003A90390684601F007FF09E0A0F5005063
:100BE0004A461F38002303A90390684601F011FF0D
:100BF0008DE807000004000C03D04FF0FF304108DF
:100C000000E01046B8F1000F03D000220092154614
:100C10001EE0751E05D4FFF723FF303262556D1EAE
:100C2000F9D5B3460122084302D000227F1C04E01C
:100C30002078302801D100227F1E002A099784D015
:100C40001DE0112D07DAFFF70BFF303262556D1CE6
:100C500050EA0102F5D1084302D00098C8B10EE075
:100C60000021681E05E0235C625C63542254401E30
:100C7000491C8142F7DBAB46A81B401E09900020AF
:100C800004F80B000B98099AC0F80880C0E9002B03
:100C90007AE711264FF0000857E72DE9F04F884614
:100CA0000446D21D22F0070191B0D1E90001CDE93F
:100CB0000A0101F0E5FF02460B98C00F01D02D207C
:100CC00007E02068810701D52B2002E0202101EAFE
:100CD000C000032A099001D0072A05DB03464146DC
:100CE000204600F011FB0BE12078800601D5E06979
:100CF00000E00620B8F1650F814606D0B8F1660F16
:100D000018D0B8F1670F70D131E00020B9F1110FA0
:100D1000009001DB112301E009F101030AAA01A9F6
:100D20000CA8FFF7E2FEDDE90C70002609F10105D1
:100D3000834647E001204B4600904FF000470AAA47
:100D400001A90CA8FFF7D1FEDDE90DB00C995D46B5
:100D5000002610B909F101000D18B9EB050003D404
:100D6000C0F1FF3609F10105A5EB09002BE0B9F14F
:100D7000010F01DA4FF001090020B9F1110F0090C5
:100D8000484601DD112300E003460AAA01A90CA888
:100D9000FFF7ABFEDDE90C704D4600268346207858
:100DA00000070AD4AB4500DA5D4601A8012D04DD39
:100DB000411911F8011C302907D04F4502DA17F10B
:100DC000040F04DA012082460FE06D1EEEE7002FCB
:100DD00002DCED1B3E4403E0781CA84200DD7D1CD4
:100DE000B81B00F1010A4FF000472078000703D438
:100DF000AA4501DB4FF0FF3A0021B7F1004F0DF19A
:100E000043088DF8431024D002202B23002F01DA51
:100E10007F422D230A21021EA0F1010000DC5FB1F8
:100E200097FBF1FC97FBF1F201FB1C7C17460CF1E0
:100E3000300C08F801CDEEE7A8F10100037021881D
:100E4000090501D5452100E06521A0F1010800F860
:100E5000011C09980FA9A1EB0807FF1D00B1012093
:100E6000411901EBEA70A1693844081A401EA061DB
:100E70002078C00602D42046FFF7E5FB099828B188
:100E8000D4E901219047206A401C20622078C006E6
:100E900022D52046FFF7D7FB1EE0002E04DBB3452A
:100EA00002DD01A8805D00E03020D4E901219047F7
:100EB000206A401C2062761CAAF101005FEA000A49
:100EC0000AD100F01DFAC0680168405CD4E9012134
:100ED0009047206A401C2062281EA5F10105DCDC39
:100EE00007E0D4E9012118F8010B9047206A401C63
:100EF0002062381EA7F10107F3DC2046FFF7B9FB9B
:100F0000032011B041E600002DE9F04F04460D46E4
:100F1000D21D22F0070089B0D0E900974846394633
:100F200001F0AEFE0246F80F01D02D2307E0206845
:100F3000810701D52B2302E0202101EAC0038DF8AF
:100F400020300BB1012000E00020032A824601D0AE
:100F5000072A04DB2946204600F0D6F93FE1207835
:100F6000800601D40D2500E0E569C7F30A560D2D72
:100F700049DA00214FEA175B08464FF00000002FC6
:100F800000F4400007DA00EB80004FF4400100EB72
:100F9000D07001EA60008115012901DD4FF0FF31B9
:100FA00000224FEA850CBCF1180F06D31346ACF1B2
:100FB00018004FF08052C24003E04FF4801323FA30
:100FC0000CF30CF10C0CBCF1200F04D3ACF1200C91
:100FD00009FA0CF001E007FA0CF000294FF0004884
:100FE00001DD18B90FE00ED140450CD319EB020911
:100FF0005F4121B9404502D19F4329EA0209BBEB79
:10100000175F00D0761C2088000502D57B48784405
:1010100002E07A487844193808AA302302F80A30E6
:10102000037C0AF10101002E0AF1020A53546A46B8
:1010300002DC4FF0300101E04FF031014FF00108C8
:101040008DF8001002D0A6F2FF3603E059EA4701FE
:1010500000D06B4E002D02DC2178090704D54FF03B
:1010600002082E218DF80110C44600210BE0C7F3C1
:1010700003433F01C35C491C6D1E02F8083005297B
:1010800008F1010801DA002DF1DC00210CE000EB91
:101090001973491C1B786D1E082902F808304FEAA5
:1010A000091908F1010801DA002DF0DC21688B062E
:1010B00002D516E0A8F10108E04505DD02EB0803C2
:1010C00013F8013C302BF5D0B8F1000F09DD02EB2D
:1010D000080313F8013C2E2B03D1090701D4A8F112
:1010E0000108002D05DD3E2102F808106D1E08F1F3
:1010F0000108407C002E02F8080008F1010804DA1B
:101100002D20764202F8080002E02B2002F80800A9
:101110000A214FF47A70864208F101080BDB96FB36
:10112000F0F3303302F8083096FBF0F308F10108D1
:1011300000FB136601E0642E0CDB642096FBF0F3E9
:10114000303302F8083096FBF0F308F1010800FB99
:10115000136601E00A2E06DB96FBF1F0303002F850
:10116000080008F1010896FBF1F001FB1060303037
:1011700002F80800A16908F1010808EB050202EB7A
:101180000A00081AA0612078C00602D42046FFF7A2
:101190005AFA216A08AE01EB0A00206204E0D4E9A1
:1011A000012116F8010B9047BAF1010AF7D2207815
:1011B000C00602D52046FFF746FA6E4609E016F84B
:1011C000010B3E280FD0D4E901219047206A401C32
:1011D0002062B8F10108F2D22046FFF74AFA09B0BE
:1011E0000320BDE8F08F206A2844206203E0D4E9A0
:1011F0000121302090476D1EEBD3F8E77D1D0000E4
:1012000002FCFFFF10B5436913B1AFF3008001E0AA
:10121000FFF752FA012010BD127800F124010A7084
:1012200000224A700122EDE711684FF0FF32E9E732
:1012300010B5436913B1AFF3008001E0FFF7F2FA94
:10124000012010BD128800F1240182840022C28492
:101250000122EDE711684FF0FF32E9E72DE9F04197
:1012600016460C46054600F043F8036893F8010162
:10127000012807D0FF2C12D8185D80B101202C70F6
:10128000BDE8F081D3F807013246214603F2071387
:10129000C7182846BC46BDE8F041002360474FF020
:1012A000FF30EDE7754600F0EBF8AE460500694605
:1012B000534620F00700854618B020B5FFF718F810
:1012C000BDE820404FF000064FF000074FF0000847
:1012D0004FF0000BAC46ACE8C009ACE8C009ACE884
:1012E000C009ACE8C00921F007018D467047000035
:1012F00010B500F005F8001D10BD00BFF119000089
:1013000000487047300000202DE9F0411F46044698
:1013100003260168072A01F4006004DB08B116A562
:1013200005E016A503E008B115A500E015A521F01C
:1013300010002060A069C01EA0610FB1401EA06116
:101340002046FFF780F94FB1D4E901213846904794
:10135000206A401C2062C01C206206E0206AFAE776
:10136000D4E9012115F8010B9047761EF8D22046EA
:10137000FFF77FF9BDE8F0814E414E006E616E00CF
:10138000494E4600696E66002DE9F04781461646D3
:101390008AB0354878440DC88DE80D00324878444D
:1013A000801C03AC0DC884E80D0041F69B30084456
:1013B000372190FBF1F290FBF1F5A5F1800501FBDF
:1013C00012041B3C02D56442012000E00020DFF83B
:1013D00098A080460027FA44AAF1BE0A0EE0E00772
:1013E0000AD03246684607EB470101230AEB810128
:1013F00001F00FFB8DE8070064107F1C002CEED17C
:10140000194F7F44AE3F19E0E80715D007EB0410F1
:101410000DF1180A90E80E008AE80E00C068F0424C
:1014200001D1981908903246012306A903A801F0BA
:10143000F0FA03AB83E807006D10641C002DE3D1C4
:101440004FF0010332466946B8F1000F03A802D0FD
:1014500001F0CAFA01E001F0DCFAC9E90001C9F8BB
:1014600008200AB0BDE8F087881A000010B50446CD
:10147000AFF300802046BDE81040FEF724BF000017
:10148000004870471000002030B44FF0013C50F885
:10149000042B51F8043BCCFA52F4D51A20D1FCB9F4
:1014A00050F8042B51F8043BCCFA52F4D51A17D15A
:1014B000B4B950F8042B51F8043BCCFA52F4D51AC5
:1014C0000ED16CB950F8042B51F8043BCCFA52F40D
:1014D000D51A05D1002CDAD030BC4FF0000070478F
:1014E00029BAB1FA81F111F01801D1F1200084403C
:1014F000F2D1CA40CB4012F0FF0213F0FF0330BC20
:10150000D01A704701491820ABBEFEE72600020042
:1015100070470000002001214FF4FA6200F010B97A
:101520002DE9F04186B04FF0000843F63002CDF8C7
:101530000480C4F2020213680C4643F008011160F3
:101540001168054601F00800019001980120CDE9DD
:101550000208032040F6004604904FF40060C4F2F5
:10156000020601AF01903046394600F0E7F94FF42A
:10157000806001903046394600F0E0F9802001900B
:101580003046394600F0DAF94FF400400190304619
:10159000394600F0D3F94FF4804001903046394687
:1015A00000F0CCF94FF4005001903046394600F07D
:1015B000C5F94FF4805001903046394600F0BEF92D
:1015C00040F20806C2F20006306841F6F117C0F298
:1015D0007657A0FB0701880900EB8000C000401E81
:1015E000FDD1302000F042F93068A0FB07018809E6
:1015F00000EB8000401EFDD1302000F037F930684C
:1016000049F68171C1F25E61A0FB0101880C642181
:101610004843401EFDD1302000F028F9202000F082
:1016200025F900202821322200F08AF80020082124
:10163000322200F085F8002001214FF4FA6200F018
:101640007FF800200C21322200F07AF840F270007E
:10165000C2F20000C5708470A0F8008006B0BDE83A
:10166000F081000081B02DE9F0438CB00DF1080845
:101670000E460546139313AB404627210193FEF710
:10168000C1FE40F27007C2F2000797F90300002480
:1016900085424FF00000A4BF01202546064497F97B
:1016A0000200F1B242F658698142A8BF2646F0B264
:1016B000C0F6000919F800003222284440F08000EA
:1016C000C1B2002000F03CF89DF808003D707E702B
:1016D00080B308F1010502E015F8010B50B3C1B267
:1016E0000120322200F02CF83878411C97F90300D1
:1016F0004AB282423970EFDB79784E1C97F90210BA
:1017000072B28A42A8BF26467E700128B8BF013651
:10171000F0B28842A8BF2646F0B219F80000322283
:1017200040F0800100203C7000F00AF83C707E70B0
:10173000D2E700BF0CB0BDE8F04301B07047000035
:101740002DE9F04140F60045C4F2020590460E46F0
:10175000024628464FF4006100F0C4F928464FF4D1
:101760008061002200F0BEF9F20928464FF4805152
:1017700000F0B8F9C6F3801228464FF4005100F08B
:10178000B1F9C6F3401228464FF4804100F0AAF99F
:10179000C6F3001228464FF4004100F0A3F9284692
:1017A0008021012200F09EF940F20807C2F20007F2
:1017B000386849F68174C1F25E64A0FB0401880CAC
:1017C00000EB80008000401EFDD1284680210022D1
:1017D00000F088F93868C6F3C002A0FB0401880C49
:1017E00000EB80008000401EFDD128464FF4805160
:1017F00000F078F9C6F3800228464FF4005100F05B
:1018000071F9C6F3400228464FF4804100F06AF9AE
:1018100006F0010228464FF4004100F063F9284623
:101820008021012200F05EF938680022A0FB04014B
:10183000880C00EB80008000401EFDD128468021EE
:1018400000F050F93868A0FB0401880C00EB800020
:101850008000401EFDD13868A0FB0401880C00FB0D
:1018600008F0401EFDD1BDE8F081000070B540F6E3
:101870000044C4F20204054620464FF400610022F1
:1018800000F030F920464FF48061002200F02AF980
:1018900020464FF48051002200F024F920464FF4F6
:1018A0000051002200F01EF920464FF48041012231
:1018B00000F018F9C5F3001220464FF4004100F083
:1018C00011F920468021012200F00CF940F20805B0
:1018D000C2F20005286849F68176C1F25E66A0FB77
:1018E0000601880C00EB80008000401EFDD12046E0
:1018F0008021002200F0F6F82868A0FB0601880C81
:1019000000EB80008000401EFDD170BDFEE70000AE
:1019100070470000B0B5044600F0EAF8054640F212
:101920000000C2F200000078611C18BF044400BF30
:1019300000F0DEF8401BA042FAD3B0BD2DE9F04F15
:1019400082B000F13E4241F6004502F1FF77C4F259
:10195000020543F6004B4FEAB7260822A842C4F21C
:10196000010B08BF0722072E4FF0010E4FF00006B3
:101970004FF000044FF0000838BF4FEAB722009242
:1019800009E000BF08F101080234B8F1100F06F1B8
:10199000040600F09D800F680EFA08F917EA090F97
:1019A000F0D0D1F804C04CF01007122F13D16FF013
:1019B000030202EA5807074406F01C050F22D7F875
:1019C00020C002FA05F30A692CEA0303AA401A436D
:1019D0003A62D1F804C002680323A3406FEA030A05
:1019E0009A430CF00303A3401A43BCF1120F0260A8
:1019F00014D80EFA0CF212F0061F0FD08268CB68D2
:101A000002EA0A02A3401A43826042684FEA1C13AA
:101A100022EA090203FA08F31A434260C2688B689B
:101A200002EA0A02A3401A435FEACC03C260A9D5C6
:101A3000002243F644030192C4F202031A684FF6EF
:101A4000084C42F480421A601A68CFF6FF7C02F418
:101A500080420192019A28F003025A4452F80C3055
:101A600006F00C070F25BD40AB43009D05FA07F7B4
:101A70003B4342F80C30DBF800204B6842EA090790
:101A8000DD0358BF22EA0907CBF80070DBF8042019
:101A90009D0342EA090758BF22EA0907CBF8047000
:101AA000DBF80820DD0242EA090743F60C4558BF7F
:101AB00022EA0907CBF80870C4F201052A689B02E4
:101AC00042EA090758BF22EA09072F605AE700BF18
:101AD00002B0BDE8F08F00000069084018BF012087
:101AE00070470000002A08BF0904816170470000A8
:101AF00040F27400C2F200000068704740F200003B
:101B000040F27401C2F20000C2F2000100780A68DB
:101B1000104408607047000080B543F60040C4F2EE
:101B20000200016841F400710160016841F48061C4
:101B30000160016841F480710160032000F074F8D5
:101B40000F2000F005F800F027F8002080BD00000D
:101B500070B540F20006C2F2000640F20801327889
:101B6000C2F200014FF47A730968B3FBF2F2044643
:101B7000B1FBF2F1084600F0DDFA0F2C4FF0010541
:101B800008D838B94FF0FF3021460022002500F078
:101B90001FF87460284670BD82B0002043F64001F3
:101BA0000190C4F202014A6842F480424A604A68E5
:101BB00002F480420192019A0090086840F080503F
:101BC0000860086800F080500090009802B07047EC
:101BD00010B54EF60C5CCEF2000CDCF80030C3F30E
:101BE000022E8EF00704042C28BF0424BEF1030348
:101BF0004FF0FF3E0EFA04F438BF0023A143994092
:101C00000EFA03F39A43114300F00F0200F1604310
:101C10000901043A03F564436244002848BF02F115
:101C20000C03197010BD00004EF60C51CEF20001ED
:101C30000A684FF6FF031A4060F30A2242F0806000
:101C400040F0FD70086070472DE9F041002800F079
:101C5000878043F60808C4F202080446D8F8F8035F
:101C60000D4600F00F00884207D288F8F853D8F8E4
:101C7000F80300F00F00A84272D12068810717D541
:101C8000410705D5D8F8001041F4E051C8F800101C
:101C9000010705D5D8F8001041F46041C8F80010DC
:101CA000D8F80010A26821F0F0011143C8F8001024
:101CB000C0073BD1D8F8F80300F00F00A84207D9BD
:101CC00088F8F853D8F8F80300F00F00A84247D17D
:101CD0002068410707D5D8F80010E26821F4E051E8
:101CE0001143C8F80010000708D5D8F80000216992
:101CF00020F4604040EAC100C8F8000000F050F84D
:101D0000D8F8001042F64862C1F30311C0F6000291
:101D1000515CC84040F20801C2F2000108600F2087
:101D2000FFF716FF0020BDE8F08100BF6068811E4C
:101D3000022907D258F8081C89015CBF0120BDE8C0
:101D4000F08111E0012807D158F8081C89035CBF15
:101D50000120BDE8F08107E058F8081C890703D48A
:101D60000120BDE8F08100BFD8F8001021F0030188
:101D70000843C8F80000FFF7BBFE064641F288376B
:101D8000D8F80000616800F00C00B0EB810F91D032
:101D9000FFF7AEFE801BB842F2D90320BDE8F08108
:101DA00010B543F60404C4F20204606800F00C00AD
:101DB00008280BD0042819BF42F20040C0F2F400FA
:101DC00047F64000C0F27D1010BD00BF20682168BA
:101DD0002368490247F64001C0F27D1100F03F023E
:101DE000C3F388105CBF42F20041C0F2F401A1FBD2
:101DF00000010023FEF78EFA21680222C1F301419F
:101E000002EB4101B0FBF1F010BD00002DE9F04103
:101E100082B000283ED00446007843F60006C00792
:101E2000C4F2020609D0B06800F00C00042875D195
:101E30003068800301D5606860B32078800719D5C9
:101E4000B06810F00C0F08D0B06800F00C00082843
:101E500040F07E80706840027AD43068800702D5F6
:101E6000E068012816D13068216920F0F80040EAC6
:101E7000C10030602078000710D42078400725D4B6
:101E8000A569002D00F02481B06800F00C0008283E
:101E900040F09280012002B0BDE8F0816069002826
:101EA00040F20000C4F2472076D00121C0F8801E25
:101EB000FFF71EFE054600BF706F8007DDD4FFF7F9
:101EC00017FE401B0228F7D9DBE000BF306C10F092
:101ED00080580AD100200190306C40F0805030646E
:101EE000306C00F080500190019847F20007C4F276
:101EF00000073868C00541D4386840F48070386005
:101F0000FFF7F6FD054600BF3868C00536D4FFF779
:101F1000EFFD401B0228F7D9B3E000BFB06800F026
:101F20000C00082803D1706840023FF581AF60685B
:101F3000B0F5803F07D0B0F5A02F40F08B8030681F
:101F400040F480203060306840F4803030608BE0B6
:101F5000E068002840F20000C4F247204ED0012182
:101F60000160FFF7C5FD0546306880073FF57BAF90
:101F7000FFF7BEFD401B0228F6D982E0A0680128C9
:101F800005D005284CD1306F40F004003067306F29
:101F900040F0010030674DE00021C0F8801EFFF7DF
:101FA000A7FD0546706F80077FF567AFFFF7A0FDBF
:101FB000401B0228F6D964E00027C4F2472700201E
:101FC0003866FFF795FD022D05460BD1306880017C
:101FD0005CD5FFF78DFD401B02284FF00300F5D9BB
:101FE000A5E000BF3068800172D5FFF781FD401B7E
:101FF00003284FF00300F5D399E000BF00210160F2
:10200000FFF776FD054600BF306880077FF532AFE9
:10201000FFF76EFD401B02284FF00300F4D986E065
:10202000316F002821F001013167316F21F0040187
:10203000316751D0FFF75CFD054641F2883700BF9C
:10204000306F80075AD4FFF753FD401BB842F7D9D1
:1020500017E000BF3168002821F480313160316819
:1020600021F48021316053D0FFF742FD054600BFC7
:10207000306880033FF5E1AEFFF73AFD401B64286E
:10208000F6D9032002B0BDE8F08100BF04F11C05C1
:102090002FCD084340EA8210D9034FF6FF729143D7
:1020A000A1F5803140EA0560084370600120386680
:1020B000FFF71EFD044600BF3068800108D4FFF71B
:1020C00017FD001B02284FF00300F5D92FE000BFD9
:1020D000002002B0BDE8F081FFF70AFD054641F29D
:1020E000883700BF306F800708D5FFF701FD401B20
:1020F000B8424FF00300F5D919E000BFB8F1000F66
:102100007FF4BEAE306C20F080503064B8E600BF83
:10211000FFF7EEFC054600BF306880037FF58DAE0B
:10212000FFF7E6FC401B64284FF00300F4D902B02F
:10213000BDE8F081411E0020B0EB116F1CBF0120F3
:1021400070474EF21002CEF2000251604EF623515B
:10215000CEF20001F0230B700721906011607047F0
:10216000FEE70000FEE70000FEE700007047000009
:1021700070470000FFF7C2BCB0B592B0002443F630
:102180004000CDE90A44CDE908440594CDE9034473
:10219000CDE901440094C4F202000168022541F037
:1021A00080510160006800F080500090009847F274
:1021B00000000094C4F20000016841F48041016015
:1021C000006800F4804000900098012006904FF4D1
:1021D000803007904FF480000D9019200E904FF43E
:1021E000A870CDE90F050420119006A80C95FFF703
:1021F0000DFE28B1EFF3108072B600BFFEE700BFFE
:102200000F20CDE901054FF4A05004904FF4805009
:10221000059001A805210394FFF716FD20B1EFF307
:10222000108072B6FEE700BF12B0B0BD4EF6885007
:10223000CEF2000001684FF0000C41F47001016023
:1022400043F60001C4F202010A6842F001020A608A
:10225000C1F808C00B684FF6FF72CFF6F6621A405D
:102260000A6043F21002C2F200424A600A6822F495
:1022700080220A60C1F80CC04FF0006140F8801C59
:1022800070470000FEE7000086B041F20004102015
:102290000221C4F20204FFF743F9FFF73DFCFFF708
:1022A0006BFF4FF0000A43F63000CDE904AACDF8E9
:1022B00000A0C4F202000168A4F5006641F010011C
:1022C00001600168002201F0100100910099CDF831
:1022D00000A001684FF4604741F00401016001680B
:1022E00001F0040100910099CDF800A0016841F0CF
:1022F0008001016000684FF4604100F080000090B0
:1023000000983046FFF7EEFB70200DF10408CDE990
:10231000010A0125204641460395FFF70FFB304691
:102320004146CDE90175CDE903AAFFF707FBFFF7A9
:10233000F1F85EA203200021FFF794F95EA20320CA
:102340000121FFF78FF94FF4FA60FFF7E3FAFFF787
:10235000E1F85CA200200021FFF784F95DA20020D3
:102360000121FFF77FF94FF4FA60FFF7D3FAFFF787
:10237000D1F842F6B168C0F6000842F68C63C0F6A8
:102380000003002000214246FFF76CF942F6AD69D8
:10239000C0F6000942F67063C0F600030020012178
:1023A0004A46FFF75FF942F63866C0F600064FF07E
:1023B000010B05E020464021FFF78EFB002851D09D
:1023C00020462021FFF788FB08BBFFF7A3F856F84B
:1023D0002A30002000214A46FFF744F956F82530FC
:1023E000002001214246FFF73DF90AF102010AF1FE
:1023F00001000D1F18BF0D46B0F1040A18BF824638
:1024000004284FF4C87008BF0125FFF783FA20465F
:102410001021FFF761FB0028CCD1FFF77BF8AAF170
:102420000107BAF1000F08BF0327BAF1040556F8F7
:10243000273018BF5546002000214246BAF1000F50
:1024400008BF5546FFF70EF956F825300020012148
:102450004A46FFF707F94FF4C870FFF75BFABA4630
:10246000A8E700BFFFF756F8BBF1000F10D156F8F0
:102470002A30002000214246FFF7F4F856F82530B4
:10248000002001214A464FF0010BFFF7EBF808E06E
:1024900013A050F82A20002000214FF0000BFFF776
:1024A000E1F84FF4C870FFF735FA89E757656C63B8
:1024B0006F6D6520546F00004B65796C6F676765C1
:1024C00072210000506C656173652073656C6563F3
:1024D0007400000066726F6D206D656E753A0000C5
:1024E000852E0008692E0008782E00085C2E000852
:1024F0005FEA400C08BF91F0000F4FEA8C234FEACF
:10250000C12243EA51514FEA1C5018BF00F5F04078
:102510004FEA300018BF41F000415FEA6C5C00F008
:102520002980BCF1FF3F08BF40F080407047130C8A
:1025300006BF12044FF0100C4FF0000C130E04BF36
:1025400012020CF1080C130F04BF12010CF1040C61
:10255000930F04BF92000CF1020CD30F04BF520082
:102560000CF1010C11464FF00002A0F11F00A0EB8E
:102570000C00704711F0004F08BF704731F0004168
:102580003FF4D5AF0B0C06BF09044FF0100C4FF011
:10259000000C0B0E04BF09020CF1080C0B0F04BF5A
:1025A00009010CF1040C8B0F04BF89000CF1020C23
:1025B000CB0F04BF49000CF1010CCCF1200322FA2F
:1025C00003F341EA030102FA0CF2A0EB0C0000F164
:1025D0000100704723F07F4720F07F4C80EA030022
:1025E00000F00040ACEB070303F57C5303F1FF035D
:1025F0002DE9804909B44FEA144324EA03484FEA1D
:10260000154B25EA0B4E0FF2042606EB13273E78F6
:1026100003FB0667C7F5000707FB06F64FEAD64639
:1026200006F102064FEA543707FB066CCCF1005C5A
:102630004FEA1C472CEA074C0CFB06F507FB06F497
:1026400004EB15464FEA961649085FEA320234BF9A
:1026500000204FF000404FEAD13706FB07FC4FEA5D
:102660001C4C0CFB0BF7D21B03FB0CF761EB0701B7
:102670000CFB0EF7B0EB074072EB17420CFB08F7B0
:1026800034BFA2EB0742B2EB074261EB17414FEABE
:102690000C444FEA910706FB07FC4FEA1C4C0CFB6D
:1026A0000BF7B0EBC74072EB573203FB0CF734BFAC
:1026B000A2EBC742B2EBC74261EB57310CFB0EF7FE
:1026C000B0EBC70072EB57720CFB08F734BFA2EBFC
:1026D000C702B2EBC70261EB57714FEA816141EA71
:1026E00092114FEA826242EA90124FEA806004EB54
:1026F000CC04039F4FEAD13706FB07FC4FEA1C4C82
:102700000CFB0BF7D21B03FB0CF761EB07010CFB77
:102710000EF7B0EB074072EB17420CFB08F734BF23
:10272000A2EB0742B2EB074261EB17414FEA8C552F
:1027300004EB9C244FEA910706FB07FC4FEA1C4C74
:102740000CFB0BF7B0EBC74072EB573203FB0CF7F7
:1027500034BFA2EBC742B2EBC74261EB57310CFB6F
:102760000EF7B0EBC70072EB57720CFB08F734BFE3
:10277000A2EBC702B2EBC70261EB57714FEA81616E
:1027800041EA92114FEA826242EA90124FEA806077
:1027900015EB4C2544F100044FEAD13706FB07FC4A
:1027A0004FEA1C4C0CFB0BF7D21B03FB0CF761EB45
:1027B00007010CFB0EF7B0EB074072EB17420CFB66
:1027C00008F734BFA2EB0742B2EB074261EB1741B7
:1027D0004FEA813141EA92414FEA823242EA904225
:1027E0004FEA80304FEA0C7615EB1C1544F10004DB
:1027F00048EA03434EEA0B484FF0000EB2EB080CD8
:1028000071EB030724BF624639464EEB0E0E4FF0C4
:10281000000B0018524149414BEB0B0BB2EB080C7B
:1028200071EB03077BF1000B24BF624639464EEB88
:102830000E0E4FF0000B0018524149414BEB0B0BB1
:10284000B2EB080C71EB03077BF1000B24BF62466F
:1028500039464EEB0E0E51EA020718BF46F001064C
:1028600016EB0E7655F1000254F1000103D5BDE8D8
:102870008901BDE80088BDE88901BDE80048B619B6
:10288000524141EB0101A3F10103704780807F7E3B
:102890007D7C7B7A797877767675747372717170D6
:1028A0006F6E6E6D6C6C6B6A6A6968686766666588
:1028B0006464636362616160605F5F5E5E5D5D5C16
:1028C0005C5B5B5A5A595958585757565655555587
:1028D0005454535352525251515050504F4F4F4EE7
:1028E0004E4D4D4D4C4C4C4B4B4B4A4A4A49494935
:1028F0004848484747474746464645454544444477
:102900004443434343424242424141419C46002B9F
:1029100030D477002BD04FEA37071CB503B44FF003
:1029200010004FF01001BAF1000F06D0BCF1000FFB
:10293000DCBF40F0080040F008014FF000000FBC81
:10294000BDE810400BF1010BBBF1010F08BF5FEABE
:10295000170722BF12F1010211F101014FF00041EE
:1029600043F1000300F0004043EA00007047F9D350
:102970005708D0E746EA06464FEA164613F1400FDD
:102980001FDD13F1200FDFBF16430A46002120335D
:102990005B42BED0C3F1200746EA06464FEA164620
:1029A00002FA07F746EA070622FA03F2C3F1200704
:1029B00001FA07F742EA070221FA03F14FF0000398
:1029C000A7E746EA020646EA06464FEA164646EA00
:1029D0000106BCBF46EA0646360C4FF000034FF036
:1029E00000024FF0000194E72DE9804C70B49A4644
:1029F000934691E8380007C831EA400C48BF34EAF2
:102A0000430C03D5FFF7E6FDFFF780FFF0BCBDE800
:102A1000008C2DE9804C70B49A46934691E83800BA
:102A200007C810F0804F08BF13F0804F03D100F0AB
:102A300005F8FFF76BFFF0BCBDE8008C20F07F4786
:102A400023F07F4C80EA030000F0004007EB0C030A
:102A5000A3F57C53A3F1FE0392F0000F00F0B380C6
:102A600095F0000F00F077802DE901494FEA114001
:102A700021EA00484FEA144624EA064700FB06FC18
:102A800008FB06F607FB08F818EB06484CEB164C5B
:102A900000FB07F718EB07484CEB17404FEA124BC7
:102AA00022EA0B4E4FEA154625EA06470BFB06FCC9
:102AB0000EFB06F607FB0EFE1EEB064E4CEB164C0D
:102AC0000BFB07F71EEB074E4CEB174B18EB0B08F5
:102AD00040F1000018EB0E0B58EB000840F100002D
:102AE0008F1A4FF000014FF000063CBFC943661B30
:102AF00014BFB5EB040C00213CBFC943F61B4FEAE1
:102B0000174427EA04454FEA1C472CEA074C04FB0C
:102B1000076205FB07F70CFB05F616EB074642EBD1
:102B2000174204FB0CFC16EB0C4642EB1C421BEB61
:102B3000060658EB020241414EEA8E0E46EA9E0618
:102B400001D5BDE80189B619524141EB0101A3F15C
:102B50000103BDE801894FEA144524EA05464FEA1E
:102B6000114721EA074C05FB07F406FB07F70CFBAE
:102B700006F111EB074144EB174405FB0CFC11EB8C
:102B80000C4144EB1C444FEA124722EA074C05FB78
:102B900007F206FB07F70CFB06F616EB074642EBBF
:102BA000174205FB0CFC16EB0C4642EB1C456A1861
:102BB00054F1000148BF7047B619524141EB010181
:102BC000A3F10103704795F0000F37D04FEA11428F
:102BD00021EA02464FEA144724EA074C02FB07F1B8
:102BE00006FB07F70CFB06F414EB074441EB174117
:102BF00002FB0CFC14EB0C4441EB1C414FEA154763
:102C000025EA074C02FB07F506FB07F70CFB06F667
:102C100016EB074645EB174502FB0CFC16EB0C4682
:102C200045EB1C42121951F1000148BF7047B6191B
:102C3000524141EB0101A3F1010370474FEA1445F2
:102C400024EA05464FEA114721EA074C05FB07F144
:102C500006FB07F70CFB06F212EB074241EB1741AC
:102C600005FB0CFC12EB0C4251EB1C414FF0000633
:102C700048BF7047921841EB0101A3F1010370476F
:102C800003B401984100009850EAC12018BF042005
:102C90004A0D18BF40F0010040F2FF72B2EB515FE5
:102CA00008BF40F00200012808BF052002B07047AD
:102CB00030380A2801D201207047002070470000F8
:102CC00010B500290AD00878002807D005487844B4
:102CD000FEF7DAFB002801D0002010BD024878443E
:102CE00010BD00000A0200000202000010B5002919
:102CF0000AD00878002807D005487844FEF7C4FBBE
:102D0000002801D0002010BD0248784410BD00000A
:102D1000FA010000F2010000F1EE100A4FF6FF7117
:102D2000C0F2C03120EA010040F04070E1EE100A2C
:102D30007047FDF7B2BFFEF7E7B8040000080000D7
:102D40000000000000020001000010000000000070
:102D500000000000303132333435363738394142E3
:102D600043444546403058003031323334353637ED
:102D700038396162636465664030780030313233DF
:102D8000343536373839616263646566787000308F
:102D90003132333435363738394142434445465869
:102DA0005000000002400000000000A000000000F1
:102DB00005400000000000C8000000000C400000BA
:102DC0000000409C00000000194000000020BCBE34
:102DD0000000000034400000BFC91B8E000000044A
:102DE000B5400000504BCFD06607E2CF0100000095
:102DF0006C4100003E8251AADFEEA73401000000C2
:102E0000D9420000DCB5A0E23A301F97FFFFFFFF78
:102E1000B4450000FD25A0C8E9A3C14FFFFFFFFF97
:102E2000FF3F00000000008000000000FF3F0000A6
:102E300000000080000000008C2E0008702E0008AA
:102E4000922E0008A42E00080000000000000000E0
:102E500001020304060708090040206053756269F7
:102E600074656D7374617465005375626974656D22
:102E700053657474696E67005375626974656D504B
:102E800072657068005375626974656D436C6F6339
:102E90006B0041637469766520506572697068657E
:102EA00072616C0053687574646F776E00202573CF
:102EB000003E2573000000000830000800000020DC
:102EC00010000000C40100081830000810000020A5
:102ED00068060000E00100081C000000430000003C
:102EE000F8FFFFFF0C0000000E0000000F000000C4
:102EF0002E0000001001000043000000F8FFFFFF5B
:102F000000404040404040404040414141414140FC
:102F100040404040404040404040404040404040B1
:102F20004005020202020202020202020202020240
:102F30000220202020202020202020020202020245
:102F4000020290909090909010101010101010109D
:102F500010101010101010101010101002020202A9
:102F600002028888888888880808080808080808ED
:102F700008080808080808080808080802020202E9
:102F80004000000000000000000000000000000001
:102F90000000000000000000000000000000000031
:102FA0000000000000000000000000000000000021
:102FB0000000000000000000000000000000000011
:102FC0000000000000000000000000000000000001
:102FD00000000000000000000000000000000000F1
:102FE00000000000000000000000000000000000E1
:102FF00000000000000000000000000000000000D1
:1030000000000000000000000100000010000000AF
:083010000024F40000000000A0
:040000050800018965
:00000001FF
